:100000000C94A3000C94CB000C94CB000C94CB006C
:100010000C94CB000C94CB000C94CB000C94FD04FE
:100020000C94CB000C94CB000C94CB000C94CB0024
:100030000C94CB000C94CB000C94CB000C94CB0014
:100040000C945B040C94CB000C94CB040C94A5048E
:100050000C94CB000C94CB000C94CB000C94CB00F4
:100060000C94CB000C94CB0007634236B79BD8A707
:100070001A39685618AEBAAB558C1D3CB7CC5763CD
:10008000BD6DEDFD753EF6177231BF000000803F7B
:1000900008000000BE922449123EABAAAA2ABECD97
:1000A000CCCC4C3E00000080BEABAAAAAA3E000009
:1000B0000000BF000000803F000000000008417801
:1000C000D3BB4387D1133D190E3CC3BD4282AD2B38
:1000D0003E68EC8276BED98FE1A93E4C80EFFFBE30
:1000E00001C4FF7F3F000000000000000008000284
:1000F00001000003040700000000000000000000F1
:100100000000240027002A00000000002300260031
:10011000290000000000250028002B00040404042E
:1001200004040404020202020202030303030303A1
:10013000010204081020408001020408102001027E
:1001400004081020610511241FBECFEFD8E0DEBFE8
:10015000CDBF26E0AAEEB4E001C01D92AB31B207DC
:10016000E1F714E0A0E0B1E0E0EEFFE102C00590AD
:100170000D92AA3EB107D9F710E0C3EAD0E004C05F
:100180002197FE010E944A0BC23AD107C9F70E948B
:1001900063060C94EE0F0C94000090E0FC01E65115
:1001A000FF4F2491FC01E05DFE4F3491FC01E45EC1
:1001B000FE4FE491EE23B1F0222339F02330E9F031
:1001C00090F4213001F1223011F1F0E0EE0FFF1F29
:1001D000EE5EFE4FA591B4918FB7F894EC913E2B53
:1001E0003C938FBF08952730A9F02830C9F0243000
:1001F00061F7809180008F7D03C0809180008F77B0
:1002000080938000E2CF84B58F7784BDDECF84B544
:100210008F7DFBCF8091B0008F778093B000D5CFDA
:100220008091B0008F7DF9CFCF93DF9390E0FC01F8
:10023000E05DFE4F2491845E9E4FFC0184918823F3
:10024000D1F090E0880F991FFC01E250FF4FA5917B
:10025000B491FC01EE5EFE4FC591D49161110EC0C8
:100260009FB7F8948C91E22FE0958E238C93288190
:10027000E223E8839FBFDF91CF9108958FB7F89471
:10028000EC91E22BEC938FBFF6CF3FB7F8948091BF
:10029000F3049091F404A091F504B091F60426B50E
:1002A000A89B05C02F3F19F00196A11DB11D3FBFAE
:1002B000BA2FA92F982F8827BC01CD01620F711D7D
:1002C000811D911D42E0660F771F881F991F4A9577
:1002D000D1F708958F929F92AF92BF92CF92DF9203
:1002E000EF92FF924B015C010E9445016B017C0182
:1002F0000E9445016C197D098E099F09683E734073
:1003000081059105A8F321E0821A9108A108B1089E
:1003100088EEC80E83E0D81EE11CF11C8114910404
:10032000A104B10429F7FF90EF90DF90CF90BF9028
:10033000AF909F908F900895AF92BF92CF92DF922F
:10034000EF92FF920F931F93CF93DF936C017B018A
:100350008B01040F151FEB015E01AE18BF08C0171B
:10036000D10759F06991D601ED91FC910190F0818E
:10037000E02DC6010995892B79F7C501DF91CF9151
:100380001F910F91FF90EF90DF90CF90BF90AF90B3
:100390000895FC01538D448D252F30E0842F90E08B
:1003A000821B930B541710F0CF9608950197089570
:1003B000FC01918D828D981761F0A28DAE0FBF2F39
:1003C000B11D5D968C91928D9F5F9F73928F90E08F
:1003D00008958FEF9FEF0895FC01918D828D9817FE
:1003E00031F0828DE80FF11D858D90E008958FEF3B
:1003F0009FEF0895FC01918D228D892F90E0805C04
:100400009F4F821B91098F739927089587EF94E07E
:100410000E94FA0121E0892B09F420E0822F08953F
:1004200080E090E0892B29F00E94060281110C9453
:1004300000000895FC01A48DA80FB92FB11DA35A87
:10044000BF4F2C91848D90E001968F739927848FF4
:10045000A689B7892C93A089B1898C918370806417
:100460008C93938D848D981306C00288F389E02DB8
:1004700080818F7D80830895EF92FF920F931F9369
:10048000CF93DF93EC0181E0888F9B8D8C8D981347
:100490001AC0E889F989808185FF15C09FB7F89453
:1004A000EE89FF896083E889F9898081837080649F
:1004B00080839FBF81E090E0DF91CF911F910F91EA
:1004C000FF90EF900895F62E0B8D10E00F5F1F4FF9
:1004D0000F731127E02E8C8D8E110CC00FB607FC08
:1004E000FACFE889F989808185FFF5CFCE010E9496
:1004F0001A02F1CFEB8DEC0FFD2FF11DE35AFF4FE8
:10050000F0829FB7F8940B8FEA89FB898081806223
:10051000CFCFCF93DF93EC01888D8823B9F0AA89E0
:10052000BB89E889F9898C9185FD03C0808186FDAE
:100530000DC00FB607FCF7CF8C9185FFF2CF8081FD
:1005400085FFEDCFCE010E941A02E9CFDF91CF9156
:100550000895FC0101900020E9F73197AF01481B95
:10056000590BBC0187EF94E00C949C018F929F92F1
:10057000AF92BF920F931F93CF93DF93CDB7DEB7A8
:10058000A1970FB6F894DEBF0FBECDBF19A24230BF
:1005900008F44AE08E010F5D1F4F842E912CB12C80
:1005A000A12CA50194010E94280BE62FB901CA01D4
:1005B000EA30F4F4E05DD801EE938D01232B242B77
:1005C000252B79F790E080E0109719F0CD010E947B
:1005D000A902A1960FB6F894DEBF0FBECDBFDF9182
:1005E000CF911F910F91BF90AF909F908F900895E2
:1005F000E95CE1CFCF93DF93D0E0C0E0009719F042
:100600000E94A902EC0188E191E00E94A9028C0FEE
:100610009D1FDF91CF910895009711F00C94A902CE
:1006200090E080E008950F931F93CF93DF938B01A9
:100630001092950540E050E060EA70E44093960522
:1006400050939705609398057093990540E050E0AA
:1006500060E271E440939A0550939B0560939C057A
:1006600070939D052AE020939E0521E020939F052D
:1006700020E120939405FC01C481D5812097E9F401
:100680001092CA05F801C481D581209739F51092DE
:10069000C40580E090E0A0EAB0E4809396059093D2
:1006A0009705A0939805B09399058AE080939E05DD
:1006B000DF91CF911F910F910895C331D10510F0B3
:1006C000C3E1D0E0FC0160817181AE018AEC95E06C
:1006D0000E94DF0FC653DA4F1882D4CFC530D10540
:1006E00010F0C5E0D0E0F80160817181AE0184ECCA
:1006F00095E00E94DF0FCC53DA4F1882CACF4F9299
:100700005F926F927F928F929F92AF92BF92CF92A1
:10071000DF92EF92FF920F931F93CF936B017C01B7
:10072000742EAC019B010E94B30C882399F08BE1DD
:1007300091E0CF911F910F91FF90EF90DF90CF90BC
:10074000BF90AF909F908F907F906F905F904F90F1
:100750000C94A90246015701E894B7F82FEF3FEF38
:100760004FE75FE7C501B4010E94B30C81110DC0D2
:100770002FEF3FEF4FE75FE7C501B4010E94CD09BE
:1007800018161CF48FE191E0D4CF2FEF3FEF4FE725
:100790005FE4C701B6010E945E0C18161CF483E2E8
:1007A00091E0C7CF2FEF3FEF4FE75FECC701B601F6
:1007B0000E94CD0987FDF3CF20E030E0A901C701F9
:1007C000B6010E94CD0910E000E087FF0AC06DE28B
:1007D00087EF94E00E943C028C01F7FAF094F7F85E
:1007E000F094C0E060E070E080E09FE37C1641F0B0
:1007F00020E030E040E251E40E94BD0BCF5FF6CF35
:10080000A70196010E94510B2B013C010E942F0C65
:100810004B015C014AE00E94B6027C01E00EF11E31
:10082000CC23C1F1C501B4010E94D2099B01AC01E6
:10083000C301B2010E94500B4B015C016EE287EFD5
:1008400094E00E943C02E80EF91EC15018F120E02D
:1008500030E040E251E4C501B4010E94330A2B01AB
:100860003C010E942F0C4B01B12CA12C4AE0C50188
:10087000B4010E94B602E80EF91EC501B4010E943F
:10088000D2099B01AC01C301B2010E94500B4B0184
:100890005C01DBCFC701CF911F910F91FF90EF90CB
:1008A000DF90CF90BF90AF909F908F907F906F9090
:1008B0005F904F9008951F920F920FB60F921124E0
:1008C0002F933F938F939F93AF93BF938091EF04A8
:1008D0009091F004A091F104B091F2043091EE04F3
:1008E00023E0230F2D3758F50196A11DB11D20934C
:1008F000EE048093EF049093F004A093F104B0937E
:10090000F2048091F3049091F404A091F504B09165
:10091000F6040196A11DB11D8093F3049093F40495
:10092000A093F504B093F604BF91AF919F918F917E
:100930003F912F910F900FBE0F901F90189526E8B2
:10094000230F0296A11DB11DD2CF1F920F920FB699
:100950000F9211242F933F934F935F936F937F9345
:100960008F939F93AF93BF93EF93FF9387EF94E0A1
:100970000E941A02FF91EF91BF91AF919F918F91C9
:100980007F916F915F914F913F912F910F900FBE8B
:100990000F901F9018951F920F920FB60F9211246F
:1009A0002F938F939F93EF93FF93E0910705F0911F
:1009B00008058081E0910D05F0910E0582FD1BC0B8
:1009C0009081809110058F5F8F73209111058217A0
:1009D00041F0E0911005F0E0E950FB4F958F8093D6
:1009E0001005FF91EF919F918F912F910F900FBE66
:1009F0000F901F9018958081F4CF1F920F920FB621
:100A00000F9211242F933F934F935F936F937F9394
:100A10008F939F93AF93BF93EF93FF93F0E0E0E04A
:100A20000995FF91EF91BF91AF919F918F917F9128
:100A30006F915F914F913F912F910F900FBE0F904B
:100A40001F901895EF92FF920F931F93CF93DF9310
:100A5000EC017B018A0188819981009729F02A8124
:100A60003B812417350788F4B8016F5F7F4F0E94E0
:100A7000120F009791F0998388831B830A832C813E
:100A80003D81232B11F4FC0110821D830C83B701DF
:100A9000888199810E94D80F0CC088819981009724
:100AA00011F00E94890E198218821D821C821B82FD
:100AB0001A82CE01DF91CF911F910F91FF90EF909D
:100AC0000895CF93DF93CDB7DEB72C970FB6F89488
:100AD000DEBF0FBECDBF1092FA041092F90488EE6B
:100AE00093E0A0E0B0E08093FB049093FC04A0931B
:100AF000FD04B093FE048AE091E09093F8048093A3
:100B0000F70485EC90E0909304058093030584EC52
:100B100090E0909306058093050580EC90E090931B
:100B200008058093070581EC90E090930A05809377
:100B3000090582EC90E090930C0580930B0586EC00
:100B400090E090930E0580930D0510921005109281
:100B500011051092120510921305EDE3F1E02491B6
:100B600020930806ECE3F1E0E491E093090689E2C2
:100B700091E0FC013491E32FF0E0EE0FFF1FEE5EF9
:100B8000FE4F4591549150930B0640930A06E8E2BC
:100B9000F1E0E491F0E0EE0FFF1FE85FFE4F4591BA
:100BA000549150930D0640930C06FC018491E82F5C
:100BB000F0E0EE0FFF1FE250FF4FA591B491B0930C
:100BC0000F06A0930E061092160681EC9CE29093FD
:100BD000110680931006EC912E2B2C93E0910A06BF
:100BE000F0910B069081809108068095892380837F
:100BF0008EE08093F6052BE02093F705EEE3F1E01D
:100C0000E491E093F805EAE2F1E0E491E093F9057C
:100C100080E89EE3A0E0B0E08093FE059093FF059E
:100C2000A0930006B09301063FE03093E3052093C4
:100C3000E405EFE3F1E0E491E093E505EBE2F1E0B8
:100C4000E491E093E6058093EB059093EC05A09387
:100C5000ED05B093EE0518861F821A8619861C864C
:100C60001B8644E050E067E271E0CE0107960E94E7
:100C700022051A8219821C821B821E821D824BE071
:100C800050E06CE271E0CE0101960E942205BE01A7
:100C9000695F7F4FCE0101960E94130389819A817B
:100CA000009711F00E94890E8F819885009711F0AE
:100CB0000E94890E2C960FB6F894DEBF0FBECDBFF2
:100CC000DF91CF910895CF93DF9300D000D000D073
:100CD000CDB7DEB7789484B5826084BD84B5816079
:100CE00084BD85B5826085BD85B5816085BD8091F7
:100CF0006E00816080936E0010928100809181006F
:100D00008260809381008091810081608093810066
:100D1000809180008160809380008091B100846028
:100D20008093B1008091B00081608093B000809189
:100D30007A00846080937A0080917A008260809348
:100D40007A0080917A00816080937A0080917A00A5
:100D5000806880937A001092C10081E080939F05A3
:100D600080E090E9AFE0B4E48093A4059093A505FA
:100D7000A093A605B093A7058FE395E3AEE0B0EC92
:100D80008093A8059093A905A093AA05B093AB05FD
:100D900060E0809194050E94140188E391E00E9434
:100DA0000C038AE090E09E838D83C12CD12C7601C8
:100DB00002E010E0812C912C5401809194058E303A
:100DC00008F08E508770806480937C0080917A0058
:100DD000806480937A0080917A0086FDFCCF8091B8
:100DE000780060917900762F682F072E000C880B11
:100DF000990B0E94D4099B01AC012093A00530936C
:100E0000A1054093A2055093A305C501B4010E941A
:100E1000510B4B015C0164E170E080E090E00E94C6
:100E20006A010130110509F0C2C0809196059091C8
:100E30009705A0919805B091990589839A83AB8312
:100E4000BC8360919E0570E090E080E00E94D20932
:100E50009B01AC0160E070E080E090E40E94630CD4
:100E60002B013C0120E030E040E05FE3C501B4012C
:100E70000E94330A29813A814B815C810E94330AA6
:100E80004B015C0120E030E040E85FE3C301B201C8
:100E90000E94500B9B01AC01C501B4010E94BD0B27
:100EA0004B015C018092AC059092AD05A092AE051D
:100EB000B092AF0540909A0550909B0560909C05BC
:100EC00070909D0529813A814B815C81C301B201FB
:100ED0000E94330AA50194010E94BD0BA301920157
:100EE0000E94500B4B015C0120E030E0A9010E9400
:100EF000CD0987FF03C0812C912C54012EEA37E4E1
:100F00004DE151E4C501B4010E94BD0B4B015C01F0
:100F100020E030E0A9010E94CD0987FF03C0812CA9
:100F2000912C5401A5019401C701B6010E94510BF7
:100F30006B017C0188E591E00E940C03AD81BE81CC
:100F40001197BE83AD83AB2B09F032CF20E030E0A8
:100F500040E251E4C701B6010E94BD0B6093B005A9
:100F60007093B1058093B2059093B30581E591E04C
:100F70000E94FA0246015701E894B7F82FEF3FEFBD
:100F80004FE75FE7C501B4010E94B30C811112C0A5
:100F90002FEF3FEF4FE75FE7C501B4010E94CD0996
:100FA000181644F48AE591E00E94FA02FFCF01E0AE
:100FB00010E003CF20E030E0A901C701B6010E9494
:100FC000CD09811105C08FEB91E00E94FA02FFCF9D
:100FD00088E191E00E94A9028CE292E00E94FA026C
:100FE0008DEB92E00E94FA0283EE92E00E94FA02F8
:100FF0008FE493E00E94FA028AEC93E00E94FA02E6
:1010000087E194E00E94FA0286E694E00E940C03D5
:1010100084EC95E00E94FA028FE694E00E940C03B3
:10102000609196057091970580919805909199052A
:1010300042E00E947F0380E894E00E94FA0285E883
:1010400094E00E940C0360919E0570E090E080E0C7
:101050004AE00E94B60286E994E00E94FA028CE916
:1010600094E00E940C036091B0057091B1058091ED
:10107000B2059091B30542E00E947F0381EA94E0BB
:101080000E94FA0286EA94E00E940C0360919A059D
:1010900070919B0580919C0590919D0542E00E9476
:1010A0007F0381EA94E00E94FA028BEA94E00E94B6
:1010B0000C0380919F05813009F0FAC083EB94E026
:1010C0000E94FA0284EC95E00E940C0386EC94E006
:1010D0000E940C036091A4057091A5058091A6055E
:1010E0009091A70542E00E947F038EEC94E00E945D
:1010F0000C036091A8057091A9058091AA059091B3
:10110000AB0542E00E947F0388E191E00E94A902C2
:1011100085ED94E00E940C038AEC95E00E94FA02AF
:1011200061E08AE00E94140161E089E00E941401FC
:1011300061E08BE00E94140161E088E00E941401EC
:1011400061E086E00E94140161E087E00E941401E2
:1011500061E085E00E94140188E00E94CD008BE0F0
:101160000E94CD0089E00E94CD008AE00E94CD005F
:1011700086E00E94CD0087E00E94CD0085E00E94BD
:10118000CD00E0910705F091080582E08083E091B1
:101190000305F09104051082E0910505F091060524
:1011A0008FEC808310920F05E0910B05F0910C05F8
:1011B00086E08083E0910905F0910A0580818061D5
:1011C0008083E0910905F0910A0580818860808321
:1011D000E0910905F0910A05808180688083E091A3
:1011E0000905F0910A0580818F7D808389E3C82EEF
:1011F000D12CE12CF12C00E010E0E0910E06F091F2
:101200000F06808190910806892B8083E0910A0661
:10121000F0910B06808190910806892B80838BE2E8
:1012200090E00197F1F7E0910A06F0910B069081AA
:1012300080910806809589238083809116068823F3
:1012400051F0E0910E06F0910F0690818091080612
:10125000809589238083E0910C06F0910D068081B2
:1012600090910906892339F190E080E0BC0190E07B
:1012700080E0A70196010E94280BCA01B9014AE04B
:101280000E94B60288E191E00E94A90268EE73E034
:1012900080E090E00E946A010115110509F4ADCFCC
:1012A0000E940602882309F4A8CF0E940000A5CF5F
:1012B0008FEB94E005CF0E944501AB01BC0180910A
:1012C000100690911106B0E0A0E08855994EAF4FFE
:1012D000BF4F840F951FA61FB71F809312069093D0
:1012E0001306A0931406B0931506E0910C06F09136
:1012F0000D06808190910906892381F40E944501A1
:101300008090120690901306A0901406B0901506D7
:1013100086169706A806B90640F7A6CF0E94450193
:101320002091100630911106620F731F811D911DCF
:10133000609312067093130680931406909315061B
:10134000E0910C06F0910D068081909109068923A9
:1013500081F00E9445018090120690901306A090A3
:101360001406B090150686169706A806B90640F72B
:101370007BCF0E9445012091100630911106A901F2
:10138000455051092091120630911306FA01E21BD3
:10139000F30BCF01860F971F69CF0E940F0A08F445
:1013A00081E00895E89409C097FB3EF490958095FC
:1013B000709561957F4F8F4F9F4F9923A9F0F92F1B
:1013C00096E9BB279395F695879577956795B79599
:1013D000F111F8CFFAF4BB0F11F460FF1BC06F5F7F
:1013E0007F4F8F4F9F4F16C0882311F096E911C091
:1013F000772321F09EE8872F762F05C0662371F0B2
:1014000096E8862F70E060E02AF09A95660F771FC5
:10141000881FDAF7880F9695879597F90895990FA1
:101420000008550FAA0BE0E8FEEF16161706E807AE
:10143000F907C0F012161306E407F50798F0621BCF
:10144000730B840B950B39F40A2661F0232B242BA4
:10145000252B21F408950A2609F4A140A6958FEFC3
:10146000811D811D08950E94460A0C94B70A0E94AE
:10147000A90A38F00E94B00A20F0952311F00C94CC
:10148000A00A0C94A60A11240C94EB0A0E94C80A24
:1014900070F3959FC1F3950F50E0551F629FF001C7
:1014A000729FBB27F00DB11D639FAA27F00DB11DE0
:1014B000AA1F649F6627B00DA11D661F829F222769
:1014C000B00DA11D621F739FB00DA11D621F839FF0
:1014D000A00D611D221F749F3327A00D611D231FC6
:1014E000849F600D211D822F762F6A2F11249F5714
:1014F00050409AF0F1F088234AF0EE0FFF1FBB1F17
:10150000661F771F881F91505040A9F79E3F5105D5
:1015100080F00C94A00A0C94EB0A5F3FE4F3983E31
:10152000D4F3869577956795B795F795E7959F5F7F
:10153000C1F7FE2B880F911D9695879597F9089511
:1015400097F99F6780E870E060E008959FEF80EC76
:10155000089500240A941616170618060906089519
:1015600000240A9412161306140605060895092E7F
:101570000394000C11F4882352F0BB0F40F4BF2BEE
:1015800011F460FF04C06F5F7F4F8F4F9F4F08952E
:1015900057FD9058440F551F59F05F3F71F0479524
:1015A000880F97FB991F61F09F3F79F08795089509
:1015B000121613061406551FF2CF4695F1DF08C028
:1015C000161617061806991FF1CF86957105610545
:1015D00008940895E894BB2766277727CB0197F9ED
:1015E00008952F923F924F925F926F927F928F92C7
:1015F0009F92AF92BF92CF92DF92EF92FF920F93A2
:101600001F93CF93DF93CDB7DEB7CA1BDB0B0FB6AB
:10161000F894DEBF0FBECDBF09942A883988488868
:101620005F846E847D848C849B84AA84B984C884FE
:10163000DF80EE80FD800C811B81AA81B981CE0FF5
:10164000D11D0FB6F894DEBF0FBECDBFED010895DA
:10165000A1E21A2EAA1BBB1BFD010DC0AA1FBB1FB6
:10166000EE1FFF1FA217B307E407F50720F0A21B28
:10167000B30BE40BF50B661F771F881F991F1A9495
:1016800069F760957095809590959B01AC01BD01BF
:10169000CF010895EE0FFF1F0590F491E02D0994FE
:1016A0005058BB27AA270E94680B0C94B70A0E94C7
:1016B000A90A38F00E94B00A20F039F49F3F19F4CB
:1016C00026F40C94A60A0EF4E095E7FB0C94A00A0D
:1016D000E92F0E94C80A58F3BA17620773078407F4
:1016E000950720F079F4A6F50C94EA0A0EF4E0953B
:1016F0000B2EBA2FA02D0B01B90190010C01CA01CC
:10170000A0011124FF27591B99F0593F50F4503E76
:1017100068F11A16F040A22F232F342F4427585F68
:10172000F3CF469537952795A795F0405395C9F780
:101730007EF41F16BA0B620B730B840BBAF0915038
:10174000A1F0FF0FBB1F661F771F881FC2F70EC0D7
:10175000BA0F621F731F841F48F4879577956795AA
:10176000B795F7959E3F08F0B0CF9395880F08F096
:101770009927EE0F9795879508950E94D10B0C94A9
:10178000B70A0E94B00A58F00E94A90A40F029F452
:101790005F3F29F00C94A00A51110C94EB0A0C94B1
:1017A000A60A0E94C80A68F39923B1F3552391F35E
:1017B000951B550BBB27AA2762177307840738F0C0
:1017C0009F5F5F4F220F331F441FAA1FA9F335D01D
:1017D0000E2E3AF0E0E832D091505040E695001CD1
:1017E000CAF72BD0FE2F29D0660F771F881FBB1F8B
:1017F000261737074807AB07B0E809F0BB0B802D69
:10180000BF01FF2793585F4F3AF09E3F510578F094
:101810000C94A00A0C94EB0A5F3FE4F3983ED4F3D7
:10182000869577956795B795F7959F5FC9F7880F68
:10183000911D9695879597F90895E1E0660F771FBA
:10184000881FBB1F621773078407BA0720F0621B4B
:10185000730B840BBA0BEE1F88F7E09508950E9476
:10186000D00A88F09F5798F0B92F9927B751B0F058
:10187000E1F0660F771F881F991F1AF0BA95C9F714
:1018800014C0B13091F00E94EA0AB1E008950C94BE
:10189000EA0A672F782F8827B85F39F0B93FCCF371
:1018A000869577956795B395D9F73EF49095809591
:1018B000709561957F4F8F4F9F4F08950E940F0A3B
:1018C00008F48FEF0895FA01EE0FFF1F30962105FF
:1018D0003105A1F16115710561F48038BFE39B0703
:1018E00049F168949038810561F08038BFEF9B071B
:1018F00041F099234AF5FF3FE1053105210519F132
:10190000E8940894E795D901AA2329F4AB2FBE2FB8
:10191000F85FD0F310C0FF5F70F4A695E0F7F739D9
:1019200050F019F0FF3A38F49F779F930DD00F9045
:1019300007FC9058089546F00C94A60A60E070E009
:1019400080E89FE308954FE79F775F934F933F931E
:101950002F930E94630D2F913F914F915F910E94B1
:10196000330A0C94C00C0E940F0A880B990B08953F
:1019700029F416F00C94A00A0C94EA0A0C94A60A16
:101980000E94D00AA8F39638A0F707F80F92E894BF
:101990002BE33AEA48EB5FE70E94490A0F920F9265
:1019A0000F924DB75EB70F920E94AB0DE8E6F0E0E4
:1019B0000E94F20C4F915F91EF91FF91E595EE1F20
:1019C000FF1F49F0FE57E0684427EE0F441FFA95C9
:1019D000E1F74195550B0E94250D0F9007FE0C94E1
:1019E000190D0895DF93CF931F930F93FF92EF92FA
:1019F000DF927B018C01689406C0DA2EEF010E9411
:101A0000460AFE01E894A59125913591459155919D
:101A1000A6F3EF010E94680BFE019701A801DA947A
:101A200069F7DF90EF90FF900F911F91CF91DF91B9
:101A300008959B01AC0160E070E080E89FE30C94A6
:101A4000BD0B0C94A00A0C94DF0D0E94D00AD8F3B1
:101A50009923C9F3940F511DA3F39150504094F072
:101A600059F0882332F0660F771F881F915050403D
:101A7000C1F79E3F51052CF7880F911D96958795CC
:101A800097F908955F3FACF0983E9CF0BB27869590
:101A900077956795B79508F4B1609395C1F7BB0F3B
:101AA00058F711F460FFE8CF6F5F7F4F8F4F9F4F64
:101AB000E3CF0C94EB0A16F00C94DF0D0C94A60AFD
:101AC00068940C94A00A0E94D00AA8F39923C1F349
:101AD000AEF3DF93CF931F930F93FF92C92FDD27B0
:101AE00088232AF02197660F771F881FDAF720E0F6
:101AF00030E040E85FEB9FE3883920F0803E38F02B
:101B000021968F770E94510BE0E9F0E004C00E941B
:101B1000510BEDEBF0E00E94F20C8B01BE01EC01E9
:101B2000FB2E6F5771097595771F880B990B0E94D3
:101B3000D40928E132E741E35FE30E94460AAF2D72
:101B40009801AE01FF900F911F91CF91DF910E94FC
:101B5000680B0C94B70AFA01DC01AA0FBB1F9B01AA
:101B6000AC01BF5728F4222733274427507820C0E0
:101B7000B75190F4AB2F0024469537952795011C5B
:101B8000A395D2F3002071F0220F331F441FB395A9
:101B9000DAF30ED00C94500B61307105A0E88A077F
:101BA000B94630F49B01AC016627772788279078E7
:101BB000309621F0208331834283538308959F3FE1
:101BC00031F0915020F4879577956795B795880FF8
:101BD000911D9695879597F908950F931F93CF932D
:101BE000DF938230910510F482E090E0E0911906D5
:101BF000F0911A0630E020E0B0E0A0E0309799F4D0
:101C00002115310509F44AC0281B390B2430310550
:101C1000D8F58A819B816115710589F1FB01938358
:101C20008283FE0111C040815181028113814817D6
:101C30005907E0F04817590799F4109761F0129688
:101C40000C93129713961C933296CF01DF91CF918C
:101C50001F910F9108950093190610931A06F4CF5F
:101C60002115310551F04217530738F0A901DB0166
:101C70009A01BD01DF01F801C1CFEF01F9CF9093C7
:101C80001A0680931906CDCFFE01E20FF31F819350
:101C900091932250310939832883D7CF2091170699
:101CA00030911806232B41F4209102013091030159
:101CB00030931806209317062091000130910101FE
:101CC0002115310541F42DB73EB7409104015091E3
:101CD0000501241B350BE0911706F0911806E21759
:101CE000F307A0F42E1B3F0B2817390778F0AC013F
:101CF0004E5F5F4F2417350748F04E0F5F1F50931C
:101D0000180640931706819391939FCFF0E0E0E08F
:101D10009CCFCF93DF930097E9F0FC0132971382B9
:101D20001282A0911906B0911A06ED0130E020E070
:101D30001097A1F420813181820F931F2091170603
:101D4000309118062817390709F061C0F09318067A
:101D5000E0931706DF91CF910895EA01CE17DF07D0
:101D6000E8F54A815B819E0141155105B1F7E90112
:101D7000FB83EA8349915991C40FD51FEC17FD07E6
:101D800061F4808191810296840F951FE901998306
:101D90008883828193819B838A83F0E0E0E01296BE
:101DA0008D919C9113970097B9F52D913C911197C6
:101DB000CD010296820F931F2091170630911806CD
:101DC0002817390739F6309751F510921A061092F4
:101DD0001906B0931806A0931706BCCFD383C2830D
:101DE00040815181840F951FC817D90761F44E5F58
:101DF0005F4F88819981480F591F518340838A81A1
:101E00009B81938382832115310509F0B0CFF09334
:101E10001A06E09319069ECFFD01DC01C0CF1382A4
:101E20001282D7CFB0E0A0E0E8E1FFE00C94F30A23
:101E30008C01009751F4CB010E94ED0D8C01C8017B
:101E4000CDB7DEB7E0E10C940F0BFC01E60FF71FF6
:101E50009C0122503109E217F30708F49DC0D90113
:101E6000CD91DC911197C617D70798F0C530D105F1
:101E700030F3CE0104978617970708F3C61BD70BDC
:101E80002297C193D1936D937C93CF010E94890EC9
:101E9000D6CF5B01AC1ABD0A4C018C0E9D1EA091E1
:101EA0001906B0911A06512C412CF12CE12C1097F7
:101EB00031F580911706909118068815990509F05B
:101EC0005CC04616570608F058C0809100019091FA
:101ED0000101009741F48DB79EB7409104015091E4
:101EE0000501841B950BE817F90708F055C0F0931E
:101EF0001806E0931706F90171836083A0CF8D91D6
:101F00009C91119712966C90129713967C90139750
:101F1000A815B90559F56C0142E0C40ED11CCA14CC
:101F2000DB0420F1AC014A195B09DA01129615971E
:101F300080F06282738251834083D9016D937C93D8
:101F4000E114F10471F0D7011396FC93EE9312970C
:101F500076CF22968C0F9D1FF90191838083F30128
:101F6000EFCFF0931A06E093190669CF4816590689
:101F700008F42C017D01D3019ACFCB010E94ED0D15
:101F80007C01009749F0AE01B8010E94CF0FC80153
:101F90000E94890E870153CF10E000E050CFFB0173
:101FA000DC0102C001900D9241505040D8F70895D5
:101FB000FB01DC0101900D920020E1F70895FB0187
:101FC000DC014150504048F001900D920020C9F7CB
:101FD00001C01D9241505040E0F70895F894FFCFA2
:101FE00000001B068000000000003C029C01C901AB
:101FF0008902FA01D801EC010D0A006E616E0069D8
:102000006E66006F7666004D512D32004172647528
:10201000696E6F20554E4F0043616C696272617446
:10202000696E6720706C6561736520776169742ED5
:10203000002020646F6E65212E005761726E696EFC
:10204000673A20436F6E656374696F6E20697373BE
:1020500075652C20523020697320696E66696E693F
:10206000746520284F70656E2063697263756974AA
:102070002064657465637465642920706C656173A0
:102080006520636865636B20796F7572207769726C
:10209000696E6720616E6420737570706C7900578B
:1020A00061726E696E673A20436F6E656374696F23
:1020B0006E20697373756520666F756E642C20528F
:1020C00030206973207A65726F2028416E616C6FD1
:1020D000672070696E2073686F72747320746F204C
:1020E00067726F756E642920706C6561736520631B
:1020F0006865636B20796F757220776972696E67A6
:1021000020616E6420737570706C79002A2A2A2A07
:102110002A2A2A2A2A2A2A2A2A2A2A2A2A2A2A2A1F
:102120002A2A2A2A2A2A2A2A2A2A2A2A2A2A2A2A0F
:102130002A2A2A2A2A2A2A2A2A2A2A2A2A2A2A2AFF
:102140002A2A2A2A2A2A2A2A2A2A2A2A2A2A2A2AEF
:102150002A2A2A2A2A2A2A2A2A2A2A2A2A2A2A2ADF
:102160002A2A2A2A2A2A2A2A2A2A2A2A2A2A2A2ACF
:102170002A2A2A2A2A2A2A2A2A2A2A2A2A2A2A2ABF
:102180002A2A2A2A2A2A2A2A2A2A2A2A2A2A2A2AAF
:102190002A2A2A2A2A2A2A2A2A2A2A2A004D512089
:1021A00073656E736F722072656164696E67206C0F
:1021B00069627261727920666F72206172647569FA
:1021C0006E6F004E6F74653A2072656D656D626565
:1021D00072207468617420616C6C20746865207072
:1021E0006172616D65746572732062656C6F7720D2
:1021F00063616E206265206D6F6469666965642045
:10220000647572696E67207468652070726F67729A
:10221000616D20657865637574696F6E2077697488
:102220006820746865206D6574686F64733A007324
:10223000657452302C20736574524C2C2073657475
:10224000412C207365744220776865726520796F30
:10225000752077696C6C206861766520746F2073D7
:10226000656E6420617320706172616D6574657262
:1022700020746865206E65772076616C75652C200A
:102280006578616D706C653A206D7953656E736F1A
:10229000722E7365745230283230293B202F2F5212
:1022A00030203D2032304BCEA900417574686F72EA
:1022B000733A204D696775656C20412E2043616C2F
:1022C0006966612055202D2059657273736F6E20E9
:1022D000522E2043617272696C6C6F2041202D2058
:1022E0004768696F72647920462E20436F6E74725E
:1022F00065726173204300436F6E74726962757416
:102300006F72733A20416E6472657320412E204DC6
:10231000617274696E657A202D204A75616E204164
:102320002E20526F6472C3AD6775657A202D204DE3
:102330006172696F20412E20526F6472C3AD677560
:10234000657A204F200053656E736F723A200053F8
:102350007570706C7920766F6C746167653A2000D7
:102360002056444300414443205265736F6C75749A
:10237000696F6E3A200020426974730052303A202F
:1023800000204BCEA900524C3A20004D6F64656C82
:102390003A20004578706F6E656E7469616C004C10
:1023A000696E65617200202D3E20613A2000207C1C
:1023B00020623A2000446576656C6F706D656E74BE
:0A23C00020626F6172643A20000091
:00000001FF
